{
  "contractName": "Notary",
  "abi": [
    {
      "inputs": [],
      "payable": false,
      "stateMutability": "nonpayable",
      "type": "constructor"
    },
    {
      "anonymous": false,
      "inputs": [
        {
          "indexed": false,
          "name": "mineTime",
          "type": "uint256"
        },
        {
          "indexed": false,
          "name": "blockNumber",
          "type": "uint256"
        },
        {
          "indexed": false,
          "name": "msgSender",
          "type": "address"
        }
      ],
      "name": "AddDoc",
      "type": "event"
    },
    {
      "constant": false,
      "inputs": [
        {
          "name": "hash",
          "type": "bytes32"
        }
      ],
      "name": "addDocHash",
      "outputs": [],
      "payable": false,
      "stateMutability": "nonpayable",
      "type": "function"
    },
    {
      "constant": true,
      "inputs": [
        {
          "name": "hash",
          "type": "bytes32"
        }
      ],
      "name": "findDocHash",
      "outputs": [
        {
          "name": "",
          "type": "uint256"
        },
        {
          "name": "",
          "type": "uint256"
        },
        {
          "name": "",
          "type": "address"
        }
      ],
      "payable": false,
      "stateMutability": "view",
      "type": "function"
    }
  ],
  "bytecode": "0x608060405234801561001057600080fd5b50336000806101000a81548173ffffffffffffffffffffffffffffffffffffffff021916908373ffffffffffffffffffffffffffffffffffffffff160217905550610321806100606000396000f30060806040526004361061004c576000357c0100000000000000000000000000000000000000000000000000000000900463ffffffff168063133a48f3146100515780634cf00d3f14610082575b600080fd5b34801561005d57600080fd5b506100806004803603810190808035600019169060200190929190505050610101565b005b34801561008e57600080fd5b506100b1600480360381019080803560001916906020019092919050505061022e565b604051808481526020018381526020018273ffffffffffffffffffffffffffffffffffffffff1673ffffffffffffffffffffffffffffffffffffffff168152602001935050505060405180910390f35b6101096102bd565b6060604051908101604052804281526020014381526020013373ffffffffffffffffffffffffffffffffffffffff16815250905080600160008460001916600019168152602001908152602001600020600082015181600001556020820151816001015560408201518160020160006101000a81548173ffffffffffffffffffffffffffffffffffffffff021916908373ffffffffffffffffffffffffffffffffffffffff1602179055509050507f38a745c01df338ba3ea14900f3851414a4a293413617c447ccd5275e4d7d18d8424333604051808481526020018381526020018273ffffffffffffffffffffffffffffffffffffffff1673ffffffffffffffffffffffffffffffffffffffff168152602001935050505060405180910390a15050565b6000806000600160008560001916600019168152602001908152602001600020600001546001600086600019166000191681526020019081526020016000206001015460016000876000191660001916815260200190815260200160002060020160009054906101000a900473ffffffffffffffffffffffffffffffffffffffff169250925092509193909250565b6060604051908101604052806000815260200160008152602001600073ffffffffffffffffffffffffffffffffffffffff16815250905600a165627a7a72305820e109bb78420a19e03fb061f987d0d81204e075e999ff5fad1dc2484305cb53b70029",
  "source": "pragma solidity ^0.4.4;\r\n\r\ncontract Notary {\r\n    address _creator;\r\n\r\n    struct Record {\r\n        uint mineTime;\r\n        uint blockNumber;\r\n        address account;\r\n    }\r\n\r\n    event AddDoc(\r\n        uint mineTime,\r\n        uint blockNumber,\r\n        address msgSender\r\n    );\r\n\r\n    // This will actually be stored on the blockchain and maps 32-byte values, our SHA-256 hashes, to an instance of our previously declared Record struct.\r\n    mapping (bytes32 => Record) private docHashes;\r\n\r\n    constructor() public {\r\n        // constructor\r\n        _creator = msg.sender;\r\n    }\r\n    \r\n    // This function send the actual file content to the contract and calculate the hash value in the contract code\r\n    function addDocHash (bytes32 hash) public {\r\n        Record memory newRecord = Record(now, block.number, msg.sender);\r\n        docHashes[hash] = newRecord;\r\n        emit AddDoc(now, block.number, msg.sender);\r\n        //... à suivre\r\n    }\r\n\r\n    // This function simply returns the corresponding mine time, block number and account for a given hash as a tuple\r\n    function findDocHash (bytes32 hash) public constant returns(uint, uint, address) {\r\n        return (docHashes[hash].mineTime, docHashes[hash].blockNumber, docHashes[hash].account);\r\n    }\r\n\r\n}",
  "sourcePath": "/mnt/d/Document/Document_Certification/SmartContracts/contracts/Notary.sol",
  "compiler": {
    "name": "solc",
    "version": "0.4.24+commit.e67f0147.Emscripten.clang"
  },
  "schemaVersion": "2.0.1",
  "updatedAt": "2018-07-27T12:27:52.212Z"
}